{
  "contractName": "Buyer",
  "abi": [
    {
      "inputs": [
        {
          "internalType": "address",
          "name": "_seller",
          "type": "address"
        },
        {
          "internalType": "address",
          "name": "_freight",
          "type": "address"
        }
      ],
      "stateMutability": "nonpayable",
      "type": "constructor"
    },
    {
      "inputs": [
        {
          "internalType": "uint256",
          "name": "_ProductId",
          "type": "uint256"
        }
      ],
      "name": "requestQuote",
      "outputs": [
        {
          "internalType": "uint256",
          "name": "",
          "type": "uint256"
        },
        {
          "internalType": "string",
          "name": "",
          "type": "string"
        },
        {
          "internalType": "string",
          "name": "",
          "type": "string"
        },
        {
          "internalType": "bool",
          "name": "",
          "type": "bool"
        },
        {
          "internalType": "address",
          "name": "",
          "type": "address"
        },
        {
          "internalType": "uint256",
          "name": "",
          "type": "uint256"
        }
      ],
      "stateMutability": "view",
      "type": "function"
    },
    {
      "inputs": [
        {
          "internalType": "uint256",
          "name": "ProductId",
          "type": "uint256"
        },
        {
          "internalType": "string",
          "name": "name",
          "type": "string"
        },
        {
          "internalType": "string",
          "name": "addr",
          "type": "string"
        },
        {
          "internalType": "uint40",
          "name": "phone",
          "type": "uint40"
        }
      ],
      "name": "Buy",
      "outputs": [],
      "stateMutability": "payable",
      "type": "function"
    },
    {
      "inputs": [
        {
          "internalType": "uint256",
          "name": "Orderid",
          "type": "uint256"
        }
      ],
      "name": "getInvoice",
      "outputs": [
        {
          "internalType": "uint256",
          "name": "",
          "type": "uint256"
        },
        {
          "internalType": "uint256",
          "name": "",
          "type": "uint256"
        },
        {
          "internalType": "string",
          "name": "",
          "type": "string"
        },
        {
          "internalType": "uint256",
          "name": "",
          "type": "uint256"
        },
        {
          "internalType": "address",
          "name": "",
          "type": "address"
        }
      ],
      "stateMutability": "view",
      "type": "function"
    }
  ],
  "bytecode": "0x608060405234801561001057600080fd5b50604051610e8f380380610e8f8339818101604052810190610032919061019f565b816000806101000a81548173ffffffffffffffffffffffffffffffffffffffff021916908373ffffffffffffffffffffffffffffffffffffffff16021790555081600160006101000a81548173ffffffffffffffffffffffffffffffffffffffff021916908373ffffffffffffffffffffffffffffffffffffffff16021790555080600260006101000a81548173ffffffffffffffffffffffffffffffffffffffff021916908373ffffffffffffffffffffffffffffffffffffffff16021790555080600360006101000a81548173ffffffffffffffffffffffffffffffffffffffff021916908373ffffffffffffffffffffffffffffffffffffffff16021790555050506101df565b600080fd5b600073ffffffffffffffffffffffffffffffffffffffff82169050919050565b600061016c82610141565b9050919050565b61017c81610161565b811461018757600080fd5b50565b60008151905061019981610173565b92915050565b600080604083850312156101b6576101b561013c565b5b60006101c48582860161018a565b92505060206101d58582860161018a565b9150509250929050565b610ca1806101ee6000396000f3fe6080604052600436106100345760003560e01c80633a23cc0a1461003957806382e566d01461007a578063af9d9a42146100bc575b600080fd5b34801561004557600080fd5b50610060600480360381019061005b9190610447565b6100d8565b604051610071959493929190610554565b60405180910390f35b34801561008657600080fd5b506100a1600480360381019061009c9190610447565b610194565b6040516100b3969594939291906105c9565b60405180910390f35b6100d660048036038101906100d191906107aa565b610254565b005b6000806060600080600160009054906101000a900473ffffffffffffffffffffffffffffffffffffffff1673ffffffffffffffffffffffffffffffffffffffff1663e041bc4a876040518263ffffffff1660e01b815260040161013b9190610849565b600060405180830381865afa158015610158573d6000803e3d6000fd5b505050506040513d6000823e3d601f19601f820116820180604052508101906101819190610915565b9450945094509450945091939590929450565b60006060806000806000600160009054906101000a900473ffffffffffffffffffffffffffffffffffffffff1673ffffffffffffffffffffffffffffffffffffffff166382e566d0886040518263ffffffff1660e01b81526004016101f99190610849565b600060405180830381865afa158015610216573d6000803e3d6000fd5b505050506040513d6000823e3d601f19601f8201168201806040525081019061023f91906109d8565b95509550955095509550955091939550919395565b6000339050600080600160009054906101000a900473ffffffffffffffffffffffffffffffffffffffff1673ffffffffffffffffffffffffffffffffffffffff166378e47ab688858989896040518663ffffffff1660e01b81526004016102bf959493929190610aac565b60408051808303816000875af11580156102dd573d6000803e3d6000fd5b505050506040513d601f19601f820116820180604052508101906103019190610b0d565b91509150813414610347576040517f08c379a000000000000000000000000000000000000000000000000000000000815260040161033e90610b99565b60405180910390fd5b60008173ffffffffffffffffffffffffffffffffffffffff163460405161036d90610bea565b60006040518083038185875af1925050503d80600081146103aa576040519150601f19603f3d011682016040523d82523d6000602084013e6103af565b606091505b50509050806103f3576040517f08c379a00000000000000000000000000000000000000000000000000000000081526004016103ea90610c4b565b60405180910390fd5b5050505050505050565b6000604051905090565b600080fd5b600080fd5b6000819050919050565b61042481610411565b811461042f57600080fd5b50565b6000813590506104418161041b565b92915050565b60006020828403121561045d5761045c610407565b5b600061046b84828501610432565b91505092915050565b61047d81610411565b82525050565b600081519050919050565b600082825260208201905092915050565b60005b838110156104bd5780820151818401526020810190506104a2565b60008484015250505050565b6000601f19601f8301169050919050565b60006104e582610483565b6104ef818561048e565b93506104ff81856020860161049f565b610508816104c9565b840191505092915050565b600073ffffffffffffffffffffffffffffffffffffffff82169050919050565b600061053e82610513565b9050919050565b61054e81610533565b82525050565b600060a0820190506105696000830188610474565b6105766020830187610474565b818103604083015261058881866104da565b90506105976060830185610474565b6105a46080830184610545565b9695505050505050565b60008115159050919050565b6105c3816105ae565b82525050565b600060c0820190506105de6000830189610474565b81810360208301526105f081886104da565b9050818103604083015261060481876104da565b905061061360608301866105ba565b6106206080830185610545565b61062d60a0830184610474565b979650505050505050565b600080fd5b600080fd5b7f4e487b7100000000000000000000000000000000000000000000000000000000600052604160045260246000fd5b61067a826104c9565b810181811067ffffffffffffffff8211171561069957610698610642565b5b80604052505050565b60006106ac6103fd565b90506106b88282610671565b919050565b600067ffffffffffffffff8211156106d8576106d7610642565b5b6106e1826104c9565b9050602081019050919050565b82818337600083830152505050565b600061071061070b846106bd565b6106a2565b90508281526020810184848401111561072c5761072b61063d565b5b6107378482856106ee565b509392505050565b600082601f83011261075457610753610638565b5b81356107648482602086016106fd565b91505092915050565b600064ffffffffff82169050919050565b6107878161076d565b811461079257600080fd5b50565b6000813590506107a48161077e565b92915050565b600080600080608085870312156107c4576107c3610407565b5b60006107d287828801610432565b945050602085013567ffffffffffffffff8111156107f3576107f261040c565b5b6107ff8782880161073f565b935050604085013567ffffffffffffffff8111156108205761081f61040c565b5b61082c8782880161073f565b925050606061083d87828801610795565b91505092959194509250565b600060208201905061085e6000830184610474565b92915050565b6000815190506108738161041b565b92915050565b600061088c610887846106bd565b6106a2565b9050828152602081018484840111156108a8576108a761063d565b5b6108b384828561049f565b509392505050565b600082601f8301126108d0576108cf610638565b5b81516108e0848260208601610879565b91505092915050565b6108f281610533565b81146108fd57600080fd5b50565b60008151905061090f816108e9565b92915050565b600080600080600060a0868803121561093157610930610407565b5b600061093f88828901610864565b955050602061095088828901610864565b945050604086015167ffffffffffffffff8111156109715761097061040c565b5b61097d888289016108bb565b935050606061098e88828901610864565b925050608061099f88828901610900565b9150509295509295909350565b6109b5816105ae565b81146109c057600080fd5b50565b6000815190506109d2816109ac565b92915050565b60008060008060008060c087890312156109f5576109f4610407565b5b6000610a0389828a01610864565b965050602087015167ffffffffffffffff811115610a2457610a2361040c565b5b610a3089828a016108bb565b955050604087015167ffffffffffffffff811115610a5157610a5061040c565b5b610a5d89828a016108bb565b9450506060610a6e89828a016109c3565b9350506080610a7f89828a01610900565b92505060a0610a9089828a01610864565b9150509295509295509295565b610aa68161076d565b82525050565b600060a082019050610ac16000830188610474565b610ace6020830187610545565b8181036040830152610ae081866104da565b90508181036060830152610af481856104da565b9050610b036080830184610a9d565b9695505050505050565b60008060408385031215610b2457610b23610407565b5b6000610b3285828601610864565b9250506020610b4385828601610900565b9150509250929050565b7f4c6f772046756e64000000000000000000000000000000000000000000000000600082015250565b6000610b8360088361048e565b9150610b8e82610b4d565b602082019050919050565b60006020820190508181036000830152610bb281610b76565b9050919050565b600081905092915050565b50565b6000610bd4600083610bb9565b9150610bdf82610bc4565b600082019050919050565b6000610bf582610bc7565b9150819050919050565b7f427579204661696c656400000000000000000000000000000000000000000000600082015250565b6000610c35600a8361048e565b9150610c4082610bff565b602082019050919050565b60006020820190508181036000830152610c6481610c28565b905091905056fea2646970667358221220bdbc6ce6a4b37a94c3a575c169c2b562ae69a3b691ded71f0298d463f80f199e64736f6c63430008110033",
  "immutableReferences": {},
  "source": "// SPDX-License-Identifier: MIT\r\npragma solidity 0.8.17;\r\n\r\nimport \"./Seller.sol\";\r\nimport \"./Freight.sol\";\r\n\r\ncontract Buyer {\r\n    address seller;\r\n    Seller s;\r\n    address freight;\r\n    Freight f;\r\n    constructor (address _seller, address _freight){\r\n        seller = _seller;\r\n        s = Seller(_seller);\r\n        freight = _freight;\r\n        f = Freight(_freight);\r\n    }\r\n\r\n    function requestQuote(uint _ProductId) public view returns (uint,string memory, string memory, bool, address,uint){\r\n        return s.requestQuote(_ProductId);\r\n    }\r\n\r\n    function Buy(uint ProductId, string memory name, string memory addr, uint40 phone) public payable{\r\n        address _Buyer = msg.sender;\r\n        (uint num, address _seller) = s.Buy(ProductId,_Buyer, name,addr,phone);\r\n        require(msg.value == num, \"Low Fund\");\r\n        (bool success,) = (_seller).call{value: msg.value}(\"\");\r\n        require(success , \"Buy Failed\");\r\n    }\r\n\r\n    function getInvoice(uint Orderid) external view returns(uint,uint,string memory, uint, address){\r\n        return s.sendInvoice(Orderid);\r\n    }\r\n}\r\n",
  "sourcePath": "C:\\Users\\sakha\\desktop\\Logistics_tracing\\contracts\\Buyer.sol",
  "compiler": {
    "name": "solc",
    "version": "0.8.17+commit.8df45f5f.Emscripten.clang"
  },
  "schemaVersion": "3.4.9",
  "updatedAt": "2022-10-25T16:51:28.689Z",
  "devdoc": {
    "kind": "dev",
    "methods": {},
    "version": 1
  },
  "userdoc": {
    "kind": "user",
    "methods": {},
    "version": 1
  }
}