{
  "contractName": "Freight",
  "abi": [
    {
      "inputs": [
        {
          "internalType": "address",
          "name": "addr",
          "type": "address"
        }
      ],
      "stateMutability": "nonpayable",
      "type": "constructor"
    },
    {
      "inputs": [
        {
          "internalType": "uint256",
          "name": "",
          "type": "uint256"
        }
      ],
      "name": "ProdDetails",
      "outputs": [
        {
          "internalType": "uint256",
          "name": "exportId",
          "type": "uint256"
        },
        {
          "internalType": "uint256",
          "name": "orderId",
          "type": "uint256"
        },
        {
          "internalType": "uint256",
          "name": "productId",
          "type": "uint256"
        },
        {
          "internalType": "bool",
          "name": "exportclr",
          "type": "bool"
        },
        {
          "internalType": "bool",
          "name": "importclr",
          "type": "bool"
        },
        {
          "internalType": "bool",
          "name": "delivered",
          "type": "bool"
        }
      ],
      "stateMutability": "view",
      "type": "function"
    },
    {
      "inputs": [
        {
          "internalType": "uint256",
          "name": "orderid",
          "type": "uint256"
        },
        {
          "internalType": "address",
          "name": "seller",
          "type": "address"
        }
      ],
      "name": "bookFreight",
      "outputs": [
        {
          "internalType": "bool",
          "name": "",
          "type": "bool"
        },
        {
          "internalType": "uint256",
          "name": "",
          "type": "uint256"
        },
        {
          "internalType": "address",
          "name": "",
          "type": "address"
        }
      ],
      "stateMutability": "nonpayable",
      "type": "function"
    },
    {
      "inputs": [
        {
          "internalType": "uint256",
          "name": "exportId",
          "type": "uint256"
        }
      ],
      "name": "exportClearance",
      "outputs": [],
      "stateMutability": "nonpayable",
      "type": "function"
    },
    {
      "inputs": [
        {
          "internalType": "uint256",
          "name": "_exportid",
          "type": "uint256"
        }
      ],
      "name": "importClearance",
      "outputs": [],
      "stateMutability": "nonpayable",
      "type": "function"
    }
  ],
  "bytecode": "0x60806040526001600355600a60045534801561001a57600080fd5b50604051610d67380380610d67833981810160405281019061003c91906100e6565b80600160006101000a81548173ffffffffffffffffffffffffffffffffffffffff021916908373ffffffffffffffffffffffffffffffffffffffff16021790555050610113565b600080fd5b600073ffffffffffffffffffffffffffffffffffffffff82169050919050565b60006100b382610088565b9050919050565b6100c3816100a8565b81146100ce57600080fd5b50565b6000815190506100e0816100ba565b92915050565b6000602082840312156100fc576100fb610083565b5b600061010a848285016100d1565b91505092915050565b610c45806101226000396000f3fe608060405234801561001057600080fd5b506004361061004c5760003560e01c806308f40aa21461005157806330144eaf1461006d578063befa5a66146100a2578063eb283261146100be575b600080fd5b61006b600480360381019061006691906104f1565b6100f0565b005b610087600480360381019061008291906104f1565b6101e1565b60405161009996959493929190610548565b60405180910390f35b6100bc60048036038101906100b791906104f1565b610244565b005b6100d860048036038101906100d39190610607565b610306565b6040516100e793929190610656565b60405180910390f35b600160009054906101000a900473ffffffffffffffffffffffffffffffffffffffff1673ffffffffffffffffffffffffffffffffffffffff163373ffffffffffffffffffffffffffffffffffffffff1614610180576040517f08c379a0000000000000000000000000000000000000000000000000000000008152600401610177906106ea565b60405180910390fd5b60016006600083815260200190815260200160002060030160016101000a81548160ff02191690831515021790555060016006600083815260200190815260200160002060030160026101000a81548160ff02191690831515021790555050565b60066020528060005260406000206000915090508060000154908060010154908060020154908060030160009054906101000a900460ff16908060030160019054906101000a900460ff16908060030160029054906101000a900460ff16905086565b600160009054906101000a900473ffffffffffffffffffffffffffffffffffffffff1673ffffffffffffffffffffffffffffffffffffffff163373ffffffffffffffffffffffffffffffffffffffff16146102d4576040517f08c379a00000000000000000000000000000000000000000000000000000000081526004016102cb906106ea565b60405180910390fd5b60016006600083815260200190815260200160002060030160006101000a81548160ff02191690831515021790555050565b600080600083600260006101000a81548173ffffffffffffffffffffffffffffffffffffffff021916908373ffffffffffffffffffffffffffffffffffffffff1602179055506000806000600260009054906101000a900473ffffffffffffffffffffffffffffffffffffffff1673ffffffffffffffffffffffffffffffffffffffff1663ac23a743896040518263ffffffff1660e01b81526004016103ac919061070a565b600060405180830381865afa1580156103c9573d6000803e3d6000fd5b505050506040513d6000823e3d601f19601f820116820180604052508101906103f2919061089b565b925092509250604051806080016040528089815260200184815260200182815260200183815250600560008a8152602001908152602001600020600082015181600001556020820151816001015560408201518160020190816104559190610b3d565b50606082015181600301908161046b9190610b3d565b509050506001600454600160009054906101000a900473ffffffffffffffffffffffffffffffffffffffff169550955095505050509250925092565b6000604051905090565b600080fd5b600080fd5b6000819050919050565b6104ce816104bb565b81146104d957600080fd5b50565b6000813590506104eb816104c5565b92915050565b600060208284031215610507576105066104b1565b5b6000610515848285016104dc565b91505092915050565b610527816104bb565b82525050565b60008115159050919050565b6105428161052d565b82525050565b600060c08201905061055d600083018961051e565b61056a602083018861051e565b610577604083018761051e565b6105846060830186610539565b6105916080830185610539565b61059e60a0830184610539565b979650505050505050565b600073ffffffffffffffffffffffffffffffffffffffff82169050919050565b60006105d4826105a9565b9050919050565b6105e4816105c9565b81146105ef57600080fd5b50565b600081359050610601816105db565b92915050565b6000806040838503121561061e5761061d6104b1565b5b600061062c858286016104dc565b925050602061063d858286016105f2565b9150509250929050565b610650816105c9565b82525050565b600060608201905061066b6000830186610539565b610678602083018561051e565b6106856040830184610647565b949350505050565b600082825260208201905092915050565b7f74686973206973206e6f74206672656967687400000000000000000000000000600082015250565b60006106d460138361068d565b91506106df8261069e565b602082019050919050565b60006020820190508181036000830152610703816106c7565b9050919050565b600060208201905061071f600083018461051e565b92915050565b600081519050610734816104c5565b92915050565b600080fd5b600080fd5b6000601f19601f8301169050919050565b7f4e487b7100000000000000000000000000000000000000000000000000000000600052604160045260246000fd5b61078d82610744565b810181811067ffffffffffffffff821117156107ac576107ab610755565b5b80604052505050565b60006107bf6104a7565b90506107cb8282610784565b919050565b600067ffffffffffffffff8211156107eb576107ea610755565b5b6107f482610744565b9050602081019050919050565b60005b8381101561081f578082015181840152602081019050610804565b60008484015250505050565b600061083e610839846107d0565b6107b5565b90508281526020810184848401111561085a5761085961073f565b5b610865848285610801565b509392505050565b600082601f8301126108825761088161073a565b5b815161089284826020860161082b565b91505092915050565b6000806000606084860312156108b4576108b36104b1565b5b60006108c286828701610725565b935050602084015167ffffffffffffffff8111156108e3576108e26104b6565b5b6108ef8682870161086d565b925050604084015167ffffffffffffffff8111156109105761090f6104b6565b5b61091c8682870161086d565b9150509250925092565b600081519050919050565b7f4e487b7100000000000000000000000000000000000000000000000000000000600052602260045260246000fd5b6000600282049050600182168061097857607f821691505b60208210810361098b5761098a610931565b5b50919050565b60008190508160005260206000209050919050565b60006020601f8301049050919050565b600082821b905092915050565b6000600883026109f37fffffffffffffffffffffffffffffffffffffffffffffffffffffffffffffffff826109b6565b6109fd86836109b6565b95508019841693508086168417925050509392505050565b6000819050919050565b6000610a3a610a35610a30846104bb565b610a15565b6104bb565b9050919050565b6000819050919050565b610a5483610a1f565b610a68610a6082610a41565b8484546109c3565b825550505050565b600090565b610a7d610a70565b610a88818484610a4b565b505050565b5b81811015610aac57610aa1600082610a75565b600181019050610a8e565b5050565b601f821115610af157610ac281610991565b610acb846109a6565b81016020851015610ada578190505b610aee610ae6856109a6565b830182610a8d565b50505b505050565b600082821c905092915050565b6000610b1460001984600802610af6565b1980831691505092915050565b6000610b2d8383610b03565b9150826002028217905092915050565b610b4682610926565b67ffffffffffffffff811115610b5f57610b5e610755565b5b610b698254610960565b610b74828285610ab0565b600060209050601f831160018114610ba75760008415610b95578287015190505b610b9f8582610b21565b865550610c07565b601f198416610bb586610991565b60005b82811015610bdd57848901518255600182019150602085019450602081019050610bb8565b86831015610bfa5784890151610bf6601f891682610b03565b8355505b6001600288020188555050505b50505050505056fea26469706673582212209f43842481e6e61bcc4b775804c72c90f1ec62c201a2f166a1db8d64e9a6349064736f6c63430008110033",
  "immutableReferences": {},
  "source": "//SPDX-License-Identifier: MIT\r\n\r\npragma solidity 0.8.17;\r\n\r\nimport \"./Buyer.sol\";\r\nimport \"./Seller.sol\";\r\n\r\ncontract Freight{\r\n    Buyer b;\r\n    address freightAcc;\r\n    Seller s;\r\n    uint ExpoCount = 1;\r\n    uint fc = 10;\r\n\r\n    struct ProductDetails{\r\n        uint exportId;\r\n        uint orderId;\r\n        uint productId;\r\n        bool exportclr;\r\n        bool importclr;\r\n        bool delivered;\r\n    }\r\n    struct freightBook{\r\n        uint orderid;\r\n        uint productid;\r\n        string name;\r\n        string addr;\r\n        \r\n    }\r\n    mapping (uint => freightBook) internal FBooks;\r\n    mapping (uint => ProductDetails) public ProdDetails;\r\n\r\n    constructor (address addr){\r\n        freightAcc = addr;\r\n    }\r\n\r\n    modifier onlyFreight(){\r\n        require(msg.sender == freightAcc, \"this is not freight\");\r\n        _;\r\n    }\r\n    function bookFreight(uint orderid, address seller) external returns (bool,uint,address){\r\n        s = Seller(seller);\r\n        (uint productid,string memory addr,string memory name) = s.fv(orderid);\r\n        FBooks[orderid] = freightBook(orderid,productid,name,addr);\r\n        return (true,fc,freightAcc);\r\n    }\r\n\r\n    function exportClearance(uint exportId) public onlyFreight{\r\n        ProdDetails[exportId].exportclr = true;\r\n    }\r\n\r\n    function importClearance(uint _exportid) public onlyFreight{\r\n        ProdDetails[_exportid].importclr = true;\r\n        ProdDetails[_exportid].delivered = true;\r\n    }\r\n}",
  "sourcePath": "C:\\Users\\sakha\\desktop\\Logistics_tracing\\contracts\\Freight.sol",
  "compiler": {
    "name": "solc",
    "version": "0.8.17+commit.8df45f5f.Emscripten.clang"
  },
  "schemaVersion": "3.4.9",
  "updatedAt": "2022-10-25T16:51:28.704Z",
  "devdoc": {
    "kind": "dev",
    "methods": {},
    "version": 1
  },
  "userdoc": {
    "kind": "user",
    "methods": {},
    "version": 1
  }
}