{
  "contractName": "Seller",
  "abi": [
    {
      "inputs": [
        {
          "internalType": "address",
          "name": "_owner",
          "type": "address"
        }
      ],
      "stateMutability": "nonpayable",
      "type": "constructor"
    },
    {
      "inputs": [
        {
          "internalType": "uint256",
          "name": "",
          "type": "uint256"
        }
      ],
      "name": "Ods",
      "outputs": [
        {
          "internalType": "uint256",
          "name": "Productid",
          "type": "uint256"
        },
        {
          "internalType": "uint256",
          "name": "Orderid",
          "type": "uint256"
        },
        {
          "internalType": "string",
          "name": "name",
          "type": "string"
        },
        {
          "internalType": "address",
          "name": "addr",
          "type": "address"
        },
        {
          "internalType": "bool",
          "name": "odd",
          "type": "bool"
        },
        {
          "internalType": "uint256",
          "name": "pprice",
          "type": "uint256"
        }
      ],
      "stateMutability": "view",
      "type": "function"
    },
    {
      "inputs": [
        {
          "internalType": "uint256",
          "name": "",
          "type": "uint256"
        }
      ],
      "name": "Products",
      "outputs": [
        {
          "internalType": "uint256",
          "name": "id",
          "type": "uint256"
        },
        {
          "internalType": "string",
          "name": "name",
          "type": "string"
        },
        {
          "internalType": "string",
          "name": "desc",
          "type": "string"
        },
        {
          "internalType": "bool",
          "name": "sold",
          "type": "bool"
        },
        {
          "internalType": "uint256",
          "name": "pprice",
          "type": "uint256"
        },
        {
          "internalType": "address",
          "name": "buyer",
          "type": "address"
        },
        {
          "internalType": "uint256",
          "name": "timestamp",
          "type": "uint256"
        }
      ],
      "stateMutability": "view",
      "type": "function"
    },
    {
      "inputs": [
        {
          "internalType": "uint256",
          "name": "",
          "type": "uint256"
        }
      ],
      "name": "products_list",
      "outputs": [
        {
          "internalType": "uint256",
          "name": "id",
          "type": "uint256"
        },
        {
          "internalType": "string",
          "name": "name",
          "type": "string"
        },
        {
          "internalType": "string",
          "name": "desc",
          "type": "string"
        },
        {
          "internalType": "bool",
          "name": "sold",
          "type": "bool"
        },
        {
          "internalType": "uint256",
          "name": "pprice",
          "type": "uint256"
        },
        {
          "internalType": "address",
          "name": "buyer",
          "type": "address"
        },
        {
          "internalType": "uint256",
          "name": "timestamp",
          "type": "uint256"
        }
      ],
      "stateMutability": "view",
      "type": "function"
    },
    {
      "inputs": [
        {
          "internalType": "string",
          "name": "name",
          "type": "string"
        },
        {
          "internalType": "string",
          "name": "desc",
          "type": "string"
        },
        {
          "internalType": "uint256",
          "name": "pprice",
          "type": "uint256"
        }
      ],
      "name": "addProduct",
      "outputs": [],
      "stateMutability": "nonpayable",
      "type": "function"
    },
    {
      "inputs": [
        {
          "internalType": "uint256",
          "name": "_ProductID",
          "type": "uint256"
        }
      ],
      "name": "requestQuote",
      "outputs": [
        {
          "internalType": "uint256",
          "name": "",
          "type": "uint256"
        },
        {
          "internalType": "string",
          "name": "",
          "type": "string"
        },
        {
          "internalType": "string",
          "name": "",
          "type": "string"
        },
        {
          "internalType": "bool",
          "name": "",
          "type": "bool"
        },
        {
          "internalType": "address",
          "name": "",
          "type": "address"
        },
        {
          "internalType": "uint256",
          "name": "",
          "type": "uint256"
        }
      ],
      "stateMutability": "view",
      "type": "function"
    },
    {
      "inputs": [
        {
          "internalType": "uint256",
          "name": "pID",
          "type": "uint256"
        },
        {
          "internalType": "address",
          "name": "_Buyer",
          "type": "address"
        },
        {
          "internalType": "string",
          "name": "_name",
          "type": "string"
        },
        {
          "internalType": "string",
          "name": "_address",
          "type": "string"
        },
        {
          "internalType": "uint40",
          "name": "_phone",
          "type": "uint40"
        }
      ],
      "name": "Buy",
      "outputs": [
        {
          "internalType": "uint256",
          "name": "",
          "type": "uint256"
        },
        {
          "internalType": "address",
          "name": "",
          "type": "address"
        }
      ],
      "stateMutability": "payable",
      "type": "function"
    },
    {
      "inputs": [
        {
          "internalType": "uint256",
          "name": "oid",
          "type": "uint256"
        }
      ],
      "name": "fv",
      "outputs": [
        {
          "internalType": "uint256",
          "name": "",
          "type": "uint256"
        },
        {
          "internalType": "string",
          "name": "",
          "type": "string"
        },
        {
          "internalType": "string",
          "name": "",
          "type": "string"
        }
      ],
      "stateMutability": "view",
      "type": "function"
    },
    {
      "inputs": [
        {
          "internalType": "uint256",
          "name": "orderid",
          "type": "uint256"
        }
      ],
      "name": "sendInvoice",
      "outputs": [
        {
          "internalType": "uint256",
          "name": "",
          "type": "uint256"
        },
        {
          "internalType": "uint256",
          "name": "",
          "type": "uint256"
        },
        {
          "internalType": "string",
          "name": "",
          "type": "string"
        },
        {
          "internalType": "uint256",
          "name": "",
          "type": "uint256"
        },
        {
          "internalType": "address",
          "name": "",
          "type": "address"
        }
      ],
      "stateMutability": "view",
      "type": "function"
    }
  ],
  "bytecode": "0x60806040526001805560016002553480156200001a57600080fd5b5060405162001d2c38038062001d2c8339818101604052810190620000409190620000f1565b806000806101000a81548173ffffffffffffffffffffffffffffffffffffffff021916908373ffffffffffffffffffffffffffffffffffffffff1602179055505062000123565b600080fd5b600073ffffffffffffffffffffffffffffffffffffffff82169050919050565b6000620000b9826200008c565b9050919050565b620000cb81620000ac565b8114620000d757600080fd5b50565b600081519050620000eb81620000c0565b92915050565b6000602082840312156200010a576200010962000087565b5b60006200011a84828501620000da565b91505092915050565b611bf980620001336000396000f3fe60806040526004361061007b5760003560e01c8063dba3f6aa1161004e578063dba3f6aa14610174578063e041bc4a146101b7578063f28ea1c1146101f8578063f7aed773146102215761007b565b806378e47ab61461008057806382e566d0146100b1578063ac23a743146100f3578063c282a3b514610132575b600080fd5b61009a60048036038101906100959190611259565b610264565b6040516100a892919061132a565b60405180910390f35b3480156100bd57600080fd5b506100d860048036038101906100d39190611353565b6103d1565b6040516100ea9695949392919061141a565b60405180910390f35b3480156100ff57600080fd5b5061011a60048036038101906101159190611353565b610666565b60405161012993929190611489565b60405180910390f35b34801561013e57600080fd5b5061015960048036038101906101549190611353565b6107d3565b60405161016b969594939291906114ce565b60405180910390f35b34801561018057600080fd5b5061019b60048036038101906101969190611353565b6108c4565b6040516101ae9796959493929190611536565b60405180910390f35b3480156101c357600080fd5b506101de60048036038101906101d99190611353565b610a43565b6040516101ef9594939291906115b3565b60405180910390f35b34801561020457600080fd5b5061021f600480360381019061021a919061160d565b610b7c565b005b34801561022d57600080fd5b5061024860048036038101906102439190611353565b610e9f565b60405161025b9796959493929190611536565b60405180910390f35b60008060016003600089815260200190815260200160002060030160006101000a81548160ff021916908315150217905550856003600089815260200190815260200160002060050160006101000a81548173ffffffffffffffffffffffffffffffffffffffff021916908373ffffffffffffffffffffffffffffffffffffffff160217905550600060036000898152602001908152602001600020600401549050604051806080016040528060025481526020018781526020018681526020018564ffffffffff1681525060046000600254815260200190815260200160002060008201518160000155602082015181600101908161036491906118a4565b50604082015181600201908161037a91906118a4565b50606082015181600301559050506002600081548092919061039b906119a5565b91905055508060008054906101000a900473ffffffffffffffffffffffffffffffffffffffff1692509250509550959350505050565b6000606080600080600080600360008981526020019081526020016000206000015411610433576040517f08c379a000000000000000000000000000000000000000000000000000000000815260040161042a90611a39565b60405180910390fd5b60008711801561044557506001548711155b610484576040517f08c379a000000000000000000000000000000000000000000000000000000000815260040161047b90611aa5565b60405180910390fd5b600360008881526020019081526020016000206000015460036000898152602001908152602001600020600101600360008a8152602001908152602001600020600201600360008b815260200190815260200160002060030160009054906101000a900460ff16600360008c815260200190815260200160002060050160009054906101000a900473ffffffffffffffffffffffffffffffffffffffff16600360008d815260200190815260200160002060060154848054610545906116c7565b80601f0160208091040260200160405190810160405280929190818152602001828054610571906116c7565b80156105be5780601f10610593576101008083540402835291602001916105be565b820191906000526020600020905b8154815290600101906020018083116105a157829003601f168201915b505050505094508380546105d1906116c7565b80601f01602080910402602001604051908101604052809291908181526020018280546105fd906116c7565b801561064a5780601f1061061f5761010080835404028352916020019161064a565b820191906000526020600020905b81548152906001019060200180831161062d57829003601f168201915b5050505050935095509550955095509550955091939550919395565b6000606080600560008581526020019081526020016000206000015460046000868152602001908152602001600020600201600460008781526020019081526020016000206001018180546106ba906116c7565b80601f01602080910402602001604051908101604052809291908181526020018280546106e6906116c7565b80156107335780601f1061070857610100808354040283529160200191610733565b820191906000526020600020905b81548152906001019060200180831161071657829003601f168201915b50505050509150808054610746906116c7565b80601f0160208091040260200160405190810160405280929190818152602001828054610772906116c7565b80156107bf5780601f10610794576101008083540402835291602001916107bf565b820191906000526020600020905b8154815290600101906020018083116107a257829003601f168201915b505050505090509250925092509193909250565b6005602052806000526040600020600091509050806000015490806001015490806002018054610802906116c7565b80601f016020809104026020016040519081016040528092919081815260200182805461082e906116c7565b801561087b5780601f106108505761010080835404028352916020019161087b565b820191906000526020600020905b81548152906001019060200180831161085e57829003601f168201915b5050505050908060030160009054906101000a900473ffffffffffffffffffffffffffffffffffffffff16908060030160149054906101000a900460ff16908060040154905086565b60036020528060005260406000206000915090508060000154908060010180546108ed906116c7565b80601f0160208091040260200160405190810160405280929190818152602001828054610919906116c7565b80156109665780601f1061093b57610100808354040283529160200191610966565b820191906000526020600020905b81548152906001019060200180831161094957829003601f168201915b50505050509080600201805461097b906116c7565b80601f01602080910402602001604051908101604052809291908181526020018280546109a7906116c7565b80156109f45780601f106109c9576101008083540402835291602001916109f4565b820191906000526020600020905b8154815290600101906020018083116109d757829003601f168201915b5050505050908060030160009054906101000a900460ff16908060040154908060050160009054906101000a900473ffffffffffffffffffffffffffffffffffffffff16908060060154905087565b60008060606000806005600087815260200190815260200160002060000154600560008881526020019081526020016000206001015460056000898152602001908152602001600020600201600560008a815260200190815260200160002060040154600560008b815260200190815260200160002060030160009054906101000a900473ffffffffffffffffffffffffffffffffffffffff16828054610ae9906116c7565b80601f0160208091040260200160405190810160405280929190818152602001828054610b15906116c7565b8015610b625780601f10610b3757610100808354040283529160200191610b62565b820191906000526020600020905b815481529060010190602001808311610b4557829003601f168201915b505050505092509450945094509450945091939590929450565b6040518060e001604052806001548152602001848152602001838152602001600015158152602001828152602001600073ffffffffffffffffffffffffffffffffffffffff168152602001428152506007600082015181600001556020820151816001019081610bec91906118a4565b506040820151816002019081610c0291906118a4565b5060608201518160030160006101000a81548160ff0219169083151502179055506080820151816004015560a08201518160050160006101000a81548173ffffffffffffffffffffffffffffffffffffffff021916908373ffffffffffffffffffffffffffffffffffffffff16021790555060c0820151816006015590505060076003600060015481526020019081526020016000206000820154816000015560018201816001019081610cb69190611adb565b5060028201816002019081610ccb9190611adb565b506003820160009054906101000a900460ff168160030160006101000a81548160ff021916908315150217905550600482015481600401556005820160009054906101000a900473ffffffffffffffffffffffffffffffffffffffff168160050160006101000a81548173ffffffffffffffffffffffffffffffffffffffff021916908373ffffffffffffffffffffffffffffffffffffffff160217905550600682015481600601559050506006600790806001815401808255809150506001900390600052602060002090600702016000909190919091506000820154816000015560018201816001019081610dc29190611adb565b5060028201816002019081610dd79190611adb565b506003820160009054906101000a900460ff168160030160006101000a81548160ff021916908315150217905550600482015481600401556005820160009054906101000a900473ffffffffffffffffffffffffffffffffffffffff168160050160006101000a81548173ffffffffffffffffffffffffffffffffffffffff021916908373ffffffffffffffffffffffffffffffffffffffff16021790555060068201548160060155505060016000815480929190610e95906119a5565b9190505550505050565b60068181548110610eaf57600080fd5b9060005260206000209060070201600091509050806000015490806001018054610ed8906116c7565b80601f0160208091040260200160405190810160405280929190818152602001828054610f04906116c7565b8015610f515780601f10610f2657610100808354040283529160200191610f51565b820191906000526020600020905b815481529060010190602001808311610f3457829003601f168201915b505050505090806002018054610f66906116c7565b80601f0160208091040260200160405190810160405280929190818152602001828054610f92906116c7565b8015610fdf5780601f10610fb457610100808354040283529160200191610fdf565b820191906000526020600020905b815481529060010190602001808311610fc257829003601f168201915b5050505050908060030160009054906101000a900460ff16908060040154908060050160009054906101000a900473ffffffffffffffffffffffffffffffffffffffff16908060060154905087565b6000604051905090565b600080fd5b600080fd5b6000819050919050565b61105581611042565b811461106057600080fd5b50565b6000813590506110728161104c565b92915050565b600073ffffffffffffffffffffffffffffffffffffffff82169050919050565b60006110a382611078565b9050919050565b6110b381611098565b81146110be57600080fd5b50565b6000813590506110d0816110aa565b92915050565b600080fd5b600080fd5b6000601f19601f8301169050919050565b7f4e487b7100000000000000000000000000000000000000000000000000000000600052604160045260246000fd5b611129826110e0565b810181811067ffffffffffffffff82111715611148576111476110f1565b5b80604052505050565b600061115b61102e565b90506111678282611120565b919050565b600067ffffffffffffffff821115611187576111866110f1565b5b611190826110e0565b9050602081019050919050565b82818337600083830152505050565b60006111bf6111ba8461116c565b611151565b9050828152602081018484840111156111db576111da6110db565b5b6111e684828561119d565b509392505050565b600082601f830112611203576112026110d6565b5b81356112138482602086016111ac565b91505092915050565b600064ffffffffff82169050919050565b6112368161121c565b811461124157600080fd5b50565b6000813590506112538161122d565b92915050565b600080600080600060a0868803121561127557611274611038565b5b600061128388828901611063565b9550506020611294888289016110c1565b945050604086013567ffffffffffffffff8111156112b5576112b461103d565b5b6112c1888289016111ee565b935050606086013567ffffffffffffffff8111156112e2576112e161103d565b5b6112ee888289016111ee565b92505060806112ff88828901611244565b9150509295509295909350565b61131581611042565b82525050565b61132481611098565b82525050565b600060408201905061133f600083018561130c565b61134c602083018461131b565b9392505050565b60006020828403121561136957611368611038565b5b600061137784828501611063565b91505092915050565b600081519050919050565b600082825260208201905092915050565b60005b838110156113ba57808201518184015260208101905061139f565b60008484015250505050565b60006113d182611380565b6113db818561138b565b93506113eb81856020860161139c565b6113f4816110e0565b840191505092915050565b60008115159050919050565b611414816113ff565b82525050565b600060c08201905061142f600083018961130c565b818103602083015261144181886113c6565b9050818103604083015261145581876113c6565b9050611464606083018661140b565b611471608083018561131b565b61147e60a083018461130c565b979650505050505050565b600060608201905061149e600083018661130c565b81810360208301526114b081856113c6565b905081810360408301526114c481846113c6565b9050949350505050565b600060c0820190506114e3600083018961130c565b6114f0602083018861130c565b818103604083015261150281876113c6565b9050611511606083018661131b565b61151e608083018561140b565b61152b60a083018461130c565b979650505050505050565b600060e08201905061154b600083018a61130c565b818103602083015261155d81896113c6565b9050818103604083015261157181886113c6565b9050611580606083018761140b565b61158d608083018661130c565b61159a60a083018561131b565b6115a760c083018461130c565b98975050505050505050565b600060a0820190506115c8600083018861130c565b6115d5602083018761130c565b81810360408301526115e781866113c6565b90506115f6606083018561130c565b611603608083018461131b565b9695505050505050565b60008060006060848603121561162657611625611038565b5b600084013567ffffffffffffffff8111156116445761164361103d565b5b611650868287016111ee565b935050602084013567ffffffffffffffff8111156116715761167061103d565b5b61167d868287016111ee565b925050604061168e86828701611063565b9150509250925092565b7f4e487b7100000000000000000000000000000000000000000000000000000000600052602260045260246000fd5b600060028204905060018216806116df57607f821691505b6020821081036116f2576116f1611698565b5b50919050565b60008190508160005260206000209050919050565b60006020601f8301049050919050565b600082821b905092915050565b60006008830261175a7fffffffffffffffffffffffffffffffffffffffffffffffffffffffffffffffff8261171d565b611764868361171d565b95508019841693508086168417925050509392505050565b6000819050919050565b60006117a161179c61179784611042565b61177c565b611042565b9050919050565b6000819050919050565b6117bb83611786565b6117cf6117c7826117a8565b84845461172a565b825550505050565b600090565b6117e46117d7565b6117ef8184846117b2565b505050565b5b81811015611813576118086000826117dc565b6001810190506117f5565b5050565b601f82111561185857611829816116f8565b6118328461170d565b81016020851015611841578190505b61185561184d8561170d565b8301826117f4565b50505b505050565b600082821c905092915050565b600061187b6000198460080261185d565b1980831691505092915050565b6000611894838361186a565b9150826002028217905092915050565b6118ad82611380565b67ffffffffffffffff8111156118c6576118c56110f1565b5b6118d082546116c7565b6118db828285611817565b600060209050601f83116001811461190e57600084156118fc578287015190505b6119068582611888565b86555061196e565b601f19841661191c866116f8565b60005b828110156119445784890151825560018201915060208501945060208101905061191f565b86831015611961578489015161195d601f89168261186a565b8355505b6001600288020188555050505b505050505050565b7f4e487b7100000000000000000000000000000000000000000000000000000000600052601160045260246000fd5b60006119b082611042565b91507fffffffffffffffffffffffffffffffffffffffffffffffffffffffffffffffff82036119e2576119e1611976565b5b600182019050919050565b7f6e6f2070726f6475637400000000000000000000000000000000000000000000600082015250565b6000611a23600a8361138b565b9150611a2e826119ed565b602082019050919050565b60006020820190508181036000830152611a5281611a16565b9050919050565b7f696e76616c69642050726f647563745f49440000000000000000000000000000600082015250565b6000611a8f60128361138b565b9150611a9a82611a59565b602082019050919050565b60006020820190508181036000830152611abe81611a82565b9050919050565b600081549050611ad4816116c7565b9050919050565b818103611ae9575050611bc1565b611af282611ac5565b67ffffffffffffffff811115611b0b57611b0a6110f1565b5b611b1582546116c7565b611b20828285611817565b6000601f831160018114611b4f5760008415611b3d578287015490505b611b478582611888565b865550611bba565b601f198416611b5d876116f8565b9650611b68866116f8565b60005b82811015611b9057848901548255600182019150600185019450602081019050611b6b565b86831015611bad5784890154611ba9601f89168261186a565b8355505b6001600288020188555050505b5050505050505b56fea2646970667358221220fe1fb834302249bb685afa6a36168a4f5c5a04a82c8524bb38635c9ea375e6ce64736f6c63430008110033",
  "immutableReferences": {},
  "source": "// SPDX-License-Identifier: MIT\r\npragma solidity 0.8.17;\r\n// The seller's address \r\ncontract Seller {\r\n    address owner;\r\n    uint product_id=1;\r\n    uint order_id=1;\r\n\r\n    struct Product {\r\n        uint id;\r\n        string name;\r\n        string desc;\r\n        bool sold;\r\n        uint pprice;\r\n        address buyer;\r\n        uint timestamp;\r\n    }\r\n\r\n    struct Buyer {\r\n        uint Orderid;\r\n        string name;\r\n        string addr;   \r\n        uint phone;\r\n\r\n    }\r\n    struct Order {\r\n        uint Productid;\r\n        uint Orderid;\r\n        string name;\r\n        address addr;\r\n        bool odd;\r\n        uint pprice; \r\n    } \r\n\r\n    mapping (uint256 => Product) public Products;\r\n    mapping (uint => Buyer) internal BuyerDetails;\r\n    mapping (uint => Order) public Ods;\r\n    Product[] public products_list;\r\n    Product private productInfo;\r\n\r\n    constructor(address _owner) {\r\n    \r\n        owner = _owner;\r\n    }\r\n    modifier onlySeller() {\r\n        require(msg.sender == owner,\"Not Seller\");\r\n        _;\r\n\r\n    }   \r\n\r\n    // Function to add prodcut\r\n    function addProduct(string memory name,string memory desc, uint pprice) public\r\n    {   \r\n        \r\n        productInfo=Product(product_id,name,desc,false,pprice,address(0),block.timestamp);\r\n        Products[product_id]=(productInfo);\r\n        products_list.push(productInfo);\r\n        product_id++;\r\n\r\n    }\r\n    // Function to requeest Quote for products \r\n    function requestQuote(uint _ProductID) external view returns (uint, string memory, string memory, bool, address,uint) {\r\n            \r\n        require(Products[_ProductID].id > 0, \"no product\");\r\n        require(_ProductID > 0 && _ProductID <=  product_id, \"invalid Product_ID\");\r\n\r\n            return (Products[_ProductID].id,\r\n            Products[_ProductID].name,\r\n            Products[_ProductID].desc,\r\n            Products[_ProductID].sold,\r\n            Products[_ProductID].buyer,\r\n            Products[_ProductID].timestamp);\r\n\r\n    }\r\n\r\n    \r\n    function Buy(uint pID,address _Buyer,string memory _name,string memory _address,uint40 _phone) public payable returns (uint, address) {\r\n            Products[pID].sold = true;\r\n            Products[pID].buyer = _Buyer;\r\n            uint toPay = Products[pID].pprice;\r\n            //Ods[order_id] = Order(order_id,pID,Products[pID].name,toPay,_Buyer,true,false,false);\r\n            BuyerDetails[order_id] = Buyer(order_id,_name,_address,_phone);\r\n            order_id++;\r\n            return (toPay, owner);\r\n    }\r\n\r\n    function fv(uint oid) external view returns (uint,string memory,string memory){\r\n        return (Ods[oid].Productid,\r\n        BuyerDetails[oid].addr,\r\n        BuyerDetails[oid].name);\r\n        // BuyerDetails[oid].ph);\r\n}\r\n\r\n    function sendInvoice(uint orderid) external view returns(uint,uint,string memory,uint,address)\r\n     {     \r\n        return (Ods[orderid].Productid,\r\n        Ods[orderid].Orderid,\r\n        Ods[orderid].name,\r\n        Ods[orderid].pprice,\r\n        Ods[orderid].addr);\r\n    }\r\n\r\n}",
  "sourcePath": "C:\\Users\\sakha\\desktop\\Logistics_tracing\\contracts\\Seller.sol",
  "compiler": {
    "name": "solc",
    "version": "0.8.17+commit.8df45f5f.Emscripten.clang"
  },
  "schemaVersion": "3.4.9",
  "updatedAt": "2022-10-25T16:51:28.727Z",
  "devdoc": {
    "kind": "dev",
    "methods": {},
    "version": 1
  },
  "userdoc": {
    "kind": "user",
    "methods": {},
    "version": 1
  }
}